S00B00004877342E7372656326
S21440000038E701209D3140006532400065324000AF
S2144000106532400065324000653240000000000016
S21440002000000000000000000000000065324000B4
S21440003065324000000000006532400065324000F6
S214400040653240006532400065324000653240000F
S21440005065324000653240006532400000000000D6
S214400060653240006532400000000000C913400081
S214400070E113400000000000E90340006532400004
S214400080000000000000000065324000653240007D
S214400090653240006532400065324000352F4000F2
S2144000A0653240006532400000000000000000005D
S2144000B00000000065324000653240006532400076
S2144000C065324000653240006532400010B5054C50
S2144000D0237833B9044B13B10448AFF300800123AF
S2144000E0237010BD840800200000000048954000A2
S2144000F0084B10B51BB108490848AFF300800848C4
S214400100036803B910BD074B002BFBD0BDE8104079
S214400110184700BF000000008808002048954000AF
S214400120489540000000000080B487B000AFF860FB
S214400130B9607A60FA68BB689B0113447B617B694F
S21440014002221A607B694FF0FF329A627B691B6A13
S2144001507B697A685A6000BF1C37BD4680BC7047D2
S21440016080B483B000AF786039607A683B689B01A2
S214400170134405221A6000BF0C37BD4680BC70474A
S21440018080B485B000AFF860B9607A60FA68BB6842
S2144001909B0113441C337A681A6000BF1437BD466F
S2144001A080BC704780B487B000AFF860B9607A60B2
S2144001B0FA68BB689B0113447B617B697A685A6224
S2144001C000BF1C37BD4680BC704700BF80B485B0BA
S2144001D000AF786039607A683B689B011344FB60E7
S2144001E0FB681B6A18461437BD4680BC704700BF84
S2144001F080B48DB000AFF860B9607A603B6002238F
S2144002003B6108237B612023BB618023FB61BB6B82
S214400210DB0B3B620023FB621AE0FB6A9B0007F1A4
S2144002203002134453F8203CBA68B2FBF3F3BB6287
S214400230BB6A1B0C7B62FA68BB6A9A4201D90023F0
S21440024023E0FA687B6A9A4206D2FB6A0133FB6275
S214400250FB6A042BE1D900E000BFFB6A042B01D9FE
S214400260002312E07B68002B08D0FB6A9B0007F156
S2144002703002134453F8202C7B681A603B68002BEE
S21440028002D03B68FA6A1A60012318463437BD46E6
S21440029080BC704780B483B000AF0346FB7108490A
S2144002A097F907305B09FA7902F01F02012000FA3D
S2144002B002F241F8232000BF0C37BD4680BC704791
S2144002C000E100E080B483B000AF78607B68072B25
S2144002D025D801A252F823F0F9024000FF02400060
S2144002E0050340000B0340000F034000130340008B
S2144002F0170340001B0340004FF4FA4310E04FF44E
S21440030000430DE04FF400430AE0084B08E0084B7A
S21440031006E0084B04E0074B02E0064B00E00023F3
S21440032018460C37BD4680BC704700BF00093D00EC
S21440033000127A00001BB70080B500AF0620044BC1
S2144003409847024613469B0013449B00184680BDC0
S214400350C502400080B500AF024B984703465B0895
S214400360184680BD3903400080B500AF024B984721
S21440037003465B08184680BD3903400080B582B00E
S21440038000AF78607868034B984700BF0837BD4693
S21440039080BD00BF9516400080B489B000AF78603D
S2144003A07B68FB61FB69BB61BB697B617B695B0901
S2144003B03B613B6903F5001303F207735B02DA6B9C
S2144003C0FB69FB60FB6803F01F03012101FA03F39E
S2144003D01340002B14BF01230023DBB218462437FA
S2144003E0BD4680BC704700BF80B582B000AF0B48AA
S2144003F00B4B984778607B6803F48053002B09D0FA
S21440040008490648084B9847064B1B68DBB2184617
S214400410064B984700BF0837BD4680BD00400240A7
S214400420351D4000A0080020011E40003104400059
S21440043080B483B000AF0346FB71064B1B685A1C62
S21440044004490A600449FA79CA5400BF0C37BD46CD
S21440045080BC7047A40800207009002080B584B096
S21440046000AF786039600C4B98470023FB6007E08C
S2144004700A4AFB68134400221A70FB680133FB608B
S214400480FB6842F20F729342F2DD054B00221A607F
S21440049000BF1037BD4680BDA5044000700900204F
S2144004A0A408002080B500AF2E4B98472E492F4811
S2144004B02F4B98470346002B45D12E492B482C4BB3
S2144004C098470346002B3ED12B492848284B98474F
S2144004D00346002B37D129492448254B98470346E5
S2144004E0002B30D126492148214B98470346002B04
S2144004F029D124491D481E4B98470346002B22D13C
S21440050021491A481A4B98470346002B1BD11F49CE
S2144005101648174B98470346002B14D11C491348DE
S214400520134B98470346002B0DD11A490F48104BE2
S21440053098470346002B06D117490C480C4B984762
S2144005400346002B02D0154B01221A601249074879
S214400550074B98470346002B02D0114B01221A60E6
S21440056000BF80BDE903400094864000700900202B
S214400570FD3B4000A4864000B4864000C486400050
S214400580D4864000E4864000EC864000F886400072
S214400590008740000887400010874000AC080020D5
S2144005A0B008002090B583B002AF0C200B4B9847A4
S2144005B00B4B009370234FF480620C2109480A4C81
S2144005C0A0470C20094B98474FF480610548084BDC
S2144005D0984700BF0437BD4690BD00BF9516400003
S2144005E05D04400000100E40291340009502400074
S2144005F0C10F4000B0B586B000AF174B3C461D4615
S2144006000FCD0FC495E8030084E80300134B9847CA
S2144006100246134B1A600E20124B9847104B1A682E
S2144006203B4619461048114B98474FF0FF310E484D
S2144006300F4B98470C480F4B98470B480E4B984724
S214400640012109480D4B98470E200D4B984700BF97
S2144006501837BD46B0BD00BF148740006903400050
S214400660B40800207D034000004002405D1C40006E
S214400670191D40009D1C4000CD1C4000FD1C400044
S214400680950240002DE9F04F83B000AF78603960A6
S21440069047E02A492A482B4B98472B4B9847034616
S2144006A018464FF0000102460B464FEA830949EAD6
S2144006B092794FEA820842464B465D0145EAD2654A
S2144006C05401A41A65EB0305241845EB01054FEACF
S2144006D0C50B4BEA547B4FEAC40A54465D46204657
S2144006E0294643F2AF624FF00003801841EB030106
S2144006F0164E43F2B0624FF00003B04702460B4638
S21440070013461846124B984700BF2B20114B98476C
S214400710034683F00103DBB2002BF6D10E4B0022DA
S2144007201A600D4B1B68002BB3D10B4B01221A608D
S21440073000BF0C37BD46BDE8F08F00BF2C87400099
S21440074000400240D11D400055034000F5344000B3
S2144007500100002099034000A808002090B583B00F
S21440076002AF0B200E4B98470A224FF480010D48EB
S2144007700D4B98470D4B009379234FF480020B2185
S21440078008480B4CA0470B200A4B98474FF4800173
S2144007900448094B984700BF0437BD4690BD00BF8C
S2144007A095164000000E0E40290D4000850640007C
S2144007B02913400095024000C10F400080B582B02A
S2144007C000AF78600B46FB7079680E480E4B984732
S2144007D00E4B00221A7000210D480E4B98470B4BCB
S2144007E01B78DBB2FA789A4208D900BF0A4B1B68DE
S2144007F0002BFBD0084B00221A6000E000BF0837F1
S214400800BD4680BD00400240D11D400028B70120B3
S2144008100000014061014000AC0800202DE9F04F87
S2144008209BB000AF52495348534B9847534B984759
S21440083003464FF00004DB1844EB04044FEA840BF5
S2144008404BEA937B4FEA830A13EB0A0344EB0B0411
S21440085043F2AF614FF0000213EB010A44EB020B88
S21440086050465946464C43F2B0624FF00003A0470C
S21440087003460C461846434B9847434B1A683B463C
S21440088042491846424B98473B46194639483A4BE8
S21440089098473A4B984703464FF00004DB1844EB22
S2144008A004044FEA840949EA93794FEA830813EB34
S2144008B0080344EB090443F2AF614FF0000213EB28
S2144008C0010844EB0209404649462D4C43F2B062CB
S2144008D04FF00003A04703460C461846294B98475E
S2144008E02C4B1B687B660BE02B4A7B6E13441B78B5
S2144008F0DBB219461F48294B98477B6E01337B660F
S214400900244B1A68204B1B681A447B6E9A42EBD8DD
S2144009101A4B984703464FF00004DB1844EB040498
S214400920A60046EA93769D005B1944EB060443F224
S214400930AF614FF000025D1844EB02062846314690
S2144009400F4C43F2B0624FF00003A04703460C46FC
S21440095018460C4B984700BF114B1B68002BFBD02A
S2144009600F4B00221A6000BF6C37BD46BDE8F08FC3
S2144009703887400000400240D11D400055034000EB
S214400980F5344000010000208030002048874000B9
S214400990F93840008430002088300020A11D4000F7
S2144009A0AC08002080B582B000AF78607B68072B2B
S2144009B031D801A252F823F0150A4000D909400068
S2144009C0E1094000E9094000F1094000F90940000A
S2144009D0010A40000B0A40000020114B98471AE0DD
S2144009E001200F4B984716E000200E4B984712E028
S2144009F010200C4B98470EE020200A4B98470AE000
S214400A003E210020084B984705E03E210120064B3A
S214400A10984700E000BF00BF0837BD4680BD00BF16
S214400A2075144000E11440005115400080B582B076
S214400A3000AF78607B68072B26D801A252F823F0D7
S214400A40610A4000650A4000650A4000770A400097
S214400A50770A4000770A4000770A4000770A40004D
S214400A60012312E00B4B98470346002B14BF01238B
S214400A700023DBB209E0084B98470346002B14BF1F
S214400A8001230023DBB200E0002318460837BD46AA
S214400A9080BD00BFAD144000C915400080B483B08F
S214400AA000AF78607B68072B25D801A252F823F068
S214400AB0D10A4000D70A4000DD0A4000E30A400061
S214400AC0E70A4000EB0A4000EF0A4000F30A400005
S214400AD04FF4FA4310E04FF400430DE04FF4004368
S214400AE00AE0084B08E0084B06E0084B04E0074BDA
S214400AF002E0064B00E0002318460C37BD4680BC9B
S214400B00704700BF00093D0000127A00001BB70086
S214400B1080B582B000AF0346FB7100BFFB79184634
S214400B20054B9847034683F00103DBB2002BF5D113
S214400B3000BF0837BD4680BD2D0A400080B586B050
S214400B4000AFF8607A603B600B46FB72FB7A184653
S214400B500D4B984702467B68B2FBF3F37B617B699B
S214400B603A6802FB03F37B613B68013B1A04074B80
S214400B7013407A68D2B2134343F47C52FB681A603F
S214400B8000BF1837BD4680BD9D0A40000000FF07E5
S214400B9080B582B000AF786039603B68002B08D1E2
S214400BA0094B9847094A7B681B6843F00053936299
S214400BB005E0074B9847054A7B681B68D36200BF31
S214400BC00837BD4680BD00BF3516400000040E40C5
S214400BD06516400080B582B000AF78607B68002B19
S214400BE003D1054B9847034602E0044B984703461B
S214400BF018460837BD4680BD4D1640007D1640005D
S214400C0080B582B000AF0346FB71FB79033B042BF3
S214400C1008D8FB791846064B9847FB791846054B8B
S214400C20984700E000BF00BF0837BD4680BD00BF04
S214400C30A5094000110B400080B582B000AF786037
S214400C4000BF7868044B98470346002BF9D0002332
S214400C5018460837BD4680BDD50B400080B500AF6E
S214400C600620044B9847024613469B0013449B00BD
S214400C70184680BD9D0A400080B500AF024B98479D
S214400C8003465B08184680BD5D0C400090B583B0B7
S214400C9000AF1148114B98470620114B9847381D16
S214400CA01423012206210F4CA0473B1D0121184664
S214400CB00D4B984701200D4B984710200C4B9847FA
S214400CC00C4B98470C4B984703461846034B98479F
S214400CD000BF0C37BD4690BD000E270709344000C4
S214400CE0010C40003D0B4000910B4000390C400089
S214400CF0F91340006D324000790C400080B485B056
S214400D0000AFF860B9607A607B68002B03D0FB6860
S214400D10BA685A6602E0FB68BA681A6600BF1437BB
S214400D20BD4680BC704700BF80B485B000AFF86059
S214400D30B9607A60FB68BA68C3F884207B685B0059
S214400D404FF40042B2FBF3F3013BC3F30D02FB68E2
S214400D50C3F88C2000BF1437BD4680BC704700BF28
S214400D6080B487B000AFF860B9607A60FB687A6894
S214400D705A64BB68B3F1C05F4AD0B3F1C05F08D8CD
S214400D80B3F1006F16D0B3F1805F2CD0002B69D042
S214400D9064E0B3F1205F65D0B3F1205F03D8B3F1D0
S214400DA0005F4AD05AE0B3F1405F5BD0B3F1605F7A
S214400DB058D053E0FB681B6F7B61FB681A6F7B68FB
S214400DC0D9437B690B401A40FB681A67FB685B6F28
S214400DD07B61FB685A6F7B68D9437B690B401A403E
S214400DE0FB685A673AE0FB681B6F7B617A687B69F1
S214400DF01A43FB681A67FB685B6F7B61FB685A6F38
S214400E007B68D9437B690B401A40FB685A6725E0EC
S214400E10FB681B6F7B61FB681A6F7B68D9437B69F5
S214400E200B401A40FB681A67FB685B6F7B617A6809
S214400E307B691A43FB685A6710E0FB681B6F7B614F
S214400E407A687B691A43FB681A67FB685B6F7B614D
S214400E507A687B691A43FB685A6700BFFB687A6802
S214400E605A6000E000BF1C37BD4680BC704700BFDC
S214400E7080B584B000AFF860B9607A60B968F86849
S214400E80194B98477B6803F001031A46B968F8681F
S214400E90164B98477B6803F00A03002B03D0FB6889
S214400EA0BA681A6202E0FB68BA685A627B6803F066
S214400EB00203002B04D0FB68BA68C3F8802008E021
S214400EC07B6803F00803002B03D0FB68BA68C3F8BE
S214400ED08420FB68BA685A61FB68BA681A6000BF2B
S214400EE01037BD4680BD00BFDD0F4000FD0C400002
S214400EF080B584B000AFF860B9607A603B60B9688E
S214400F00F868124B9847BA69B968F868104B984722
S214400F103B68002B03D0FB68BA681A6502E0FB68A2
S214400F20BA685A657B68002B03D0FB68BA681A63B8
S214400F3002E0FB68BA685A63FB68BA681A61FB68E5
S214400F40BA681A6000BF1037BD4680BDDD0F40004E
S214400F50FD0C400080B485B000AFF860B9607A60A0
S214400F607B6803F01003002B20D0FB68BA68C3F8F8
S214400F70B0207B6803F02003002B04D0FB68BA68DF
S214400F80C3F8D42003E0FB68BA68C3F8D0207B6877
S214400F9003F04003002B04D0FB68BA68C3F8C020B7
S214400FA008E0FB68BA68C3F8C42003E0FB68BA6888
S214400FB0C3F8B42000BF1437BD4680BC704700BF9E
S214400FC080B483B000AF786039607B683A681A6452
S214400FD000BF0C37BD4680BC704700BF80B483B0AE
S214400FE000AF786039607B683A685A6400BF0C3757
S214400FF0BD4680BC704700BF80B483B000AF786009
S2144010007B68DB6C18460C37BD4680BC704700BF1B
S21440101080B483B000AF78607B689B6C18460C3712
S214401020BD4680BC704700BF90B587B002AF7860C1
S21440103039607868634B9847F8603B6803F0F04344
S214401040B3F1005F67D0B3F1005F09D8B3F1805FBA
S2144010502BD0B3F1C05F43D0B3F1006F0AD0A9E004
S214401060B3F1405F7ED0B3F1605F7BD0B3F1205FD9
S2144010706CD09FE07B6803F01F03012202FA03F363
S2144010801A464FF00061F8684F4B98477B6803F06C
S2144010901F03012202FA03F319463B6803F00103DB
S2144010A01A46F868494B984786E07B6803F01F036A
S2144010B0012202FA03F31A464FF08051F868424B79
S2144010C098477B6803F01F03012202FA03F3194690
S2144010D03B6803F001031A46F8683C4B98476BE0C0
S2144010E07B6803F01F03012202FA03F31A464FF00F
S2144010F0C051F868344B98477B6803F01F030122C1
S21440110002FA03F319463B6803F001031A46F868EF
S2144011102E4B984750E07B6803F01F03012202FAEB
S21440112003F31A464FF00051F868274B98477B6800
S21440113003F01F03012202FA03F319463B6803F04B
S21440114001031A46F868214B984735E07B6803F060
S2144011501F03012202FA03F33A681946F8681C4B4B
S214401160984729E07B6803F01F03012202FA03F345
S21440117019463B6803F06053B3F1605F0CBF012330
S2144011800023DBB21A463B6803F00403002B14BF6F
S21440119001230023DBB218463B6803F00103002B13
S2144011A014BF01230023DBB200930346F868094CC2
S2144011B0A04701E0002300E0012318461437BD464F
S2144011C090BD00BFD9114000610D4000FD0C4000AD
S2144011D0710E4000F10E400080B485B000AF7860DC
S2144011E07B685B0903F5001303F207735B02FB6041
S2144011F0FB6818461437BD4680BC704780B483B041
S21440120000AF78607B68D3F8503143F001027B68CA
S214401210C3F85021034B01221A6000BF0C37BD466D
S21440122080BC70472CB7012080B483B000AF786094
S2144012307B68D3F8503123F001027B68C3F8502115
S214401240034B00221A6000BF0C37BD4680BC704777
S2144012502CB7012080B584B000AF786039607868DC
S2144012602C4B9847F86078682B4B98470246FB68AB
S2144012701340FB60FB68002B3CD00023BB6034E08F
S214401280264ABB681B0113441A683B689A4226D11B
S214401290224ABB681B01134404331A68FB68134098
S2144012A0002B1CD01D4ABB681B0113440C331B6823
S2144012B01A49BA6812010A4410681849BA681201F5
S2144012C00A440432126811469847144ABB681B0108
S2144012D0134404331B68DB43FA681340FB60BB6867
S2144012E00133BB60BB68062B03D8FB68002BC7D115
S2144012F000E000BF0A4B1B68002B07D0094B1B6859
S214401300002B03D0074B1B687868984700BF103700
S214401310BD4680BDF90F400011104000B8080020BF
S2144013202CB701202C09002080B586B000AFF860AD
S214401330B9607A603B60214B1B68062B01D90123BC
S21440134038E00023FB7511E0FB7D1B011C4A13446B
S2144013503B613B691A68BB689A4204D13B695A684C
S2144013607B689A4208D0FB7D0133FB75FA7D134BB0
S2144013701B689A42E8D900E000BF3B69BA681A6029
S2144013803B697A685A603B693A689A603B693A6A50
S214401390DA60FA7D094B1B6801339A4204D1074B49
S2144013A01B680133054A13603A687968F868054B4C
S2144013B09847002318461837BD4680BD28090020A8
S2144013C0B8080020550F400080B500AF0B210248FA
S2144013D0024B984700BF80BD000E0E40551240009D
S2144013E080B500AF0C210248024B984700BF80BD35
S2144013F000100E405512400080B485B000AF7860B3
S2144014001B491B4B1B6B23F070027B6813430B631B
S2144014104FF40063FB6007E0FB68002B01D101231B
S21440142021E0FB68013BFB60114B9B6E03F0080319
S214401430002BF1D00E4A0E4B1B6B43F00303136395
S2144014404FF40063FB6007E0FB68002B01D10123EB
S21440145009E0FB68013BFB60054B9B6E03F008030D
S214401460002BF1D0002318461437BD4680BC704789
S21440147000040E4080B483B000AF78607B68012BD8
S21440148007D1084A074B9B6843F0254343F4801333
S2144014909360044B044A1A6000BF0C37BD4680BCBC
S2144014A0704700BF10140E40080000A580B400AF7F
S2144014B0094B5B6903F08003002B07D0074B9B6EFC
S2144014C003F08003002B01D0012300E000231846E0
S2144014D0BD4680BC704700BF10140E4000040E404E
S2144014E080B483B000AF7860184A184B1B6A43F448
S2144014F05C1343F00803136200BF144B9B6E03F467
S2144015000033002BF9D01149104B1B6A23F45C13AF
S21440151023F070037A68134343F45C130B6200BFF6
S2144015200A4B9B6E03F40033002BF9D0074A074B57
S2144015301B6A23F09B7323F4803343F45C131362DB
S21440154000BF0C37BD4680BC704700BF00040E404D
S21440155080B483B000AF786039607B68002B08D0D9
S2144015601649164B1B6A164A1A40164B13430B6213
S2144015701EE01249114B1B6A23F45C1323F003034D
S2144015803A68120292B2134343F45C1343F00103E9
S2144015900B6200BF094B9B6E03F00103002BF9D092
S2144015A0064A064B1B6A43F09B7343F48033136230
S2144015B000BF0C37BD4680BC704700BF00040E40DD
S2144015C0FCFFC8FE0200370180B400AF034B9B6EA1
S2144015D003F480331846BD4680BC704700040E4076
S2144015E080B584B000AFF860B9607A600E4B98471B
S2144015F00E487B68DAB2BB681B0203F47C531A437E
S214401600FB6819040A4B0B40134343F000538362B4
S21440161000BF064B9B6E03F00203002BF9D000BFC1
S2144016201037BD4680BD00BF3516400000040E4052
S2144016300000FF0780B400AF034B4FF000529A62A1
S21440164000BFBD4680BC704700040E4080B400AF6B
S214401650034B9B6E03F002031846BD4680BC7047A2
S21440166000040E4080B400AF034B0022DA6200BF95
S214401670BD4680BC704700BF00040E4080B400AF3B
S214401680034B9B6E03F004031846BD4680BC704770
S21440169000040E4080B483B000AF78607B68222B95
S2144016A001D901232FE07B681F2B13D8184B9A696A
S2144016B001217B6801FA03F31A4001217B6801FA95
S2144016C003F39A421ED0124A01217B6801FA03F3C3
S2144016D0136117E07B68203B7B600D4BD3F80821F5
S2144016E001217B6801FA03F31A4001217B6801FA65
S2144016F003F39A4206D0064A01217B6801FA03F3B7
S214401700C2F80031002318460C37BD4680BC7047EF
S21440171000040E4080B483B000AF78607B68082237
S2144017201A607B6820221A607B6804221A6000BF19
S2144017300C37BD4680BC704780B584B000AF78603B
S21440174039600023FB607B684FF0FF329A627B680B
S2144017501B6A78680E4B984778680E4B98473B68EC
S21440176059683B681B681A4678680B4B984703468F
S214401770012B01D10123FB603B685B7A012B02D130
S2144017807B6840221A60FB6818461037BD4680BD0D
S214401790D51A4000151740009D17400080B489B008
S2144017A000AFF860B9607A600023FB61BB68344ADA
S2144017B0934201D901235DE0BB68324A934237D950
S2144017C07B68314AA2FB03239B0B043B7B61BA68D0
S2144017D02E4B13449B007A68B2FBF3F3043B3B6109
S2144017E005E0FB690133FB617B695B087B617B69D4
S2144017F0FF2B09D9FB69062BF3D905E0FB690133BA
S214401800FB613B695B083B613B69FF2B02D9FB6987
S214401810062BF3D97B69DAB23B691B029BB21A43AB
S214401820FB691B0403F4E0231A43FB681A6120E0BB
S214401830BB685B007A68B2FBF3F3043BBB6105E030
S214401840FB690133FB61BB695B08BB61BB69FF2B6E
S21440185002D9FB69062BF3D9BB69DAB2BB691B0216
S2144018609BB21A43FB691B0403F4E0231A43FB684C
S2144018701A61002318462437BD4680BC704700BF17
S214401880801A060000DC0500F11976050012FD3FBF
S21440189080B485B000AF786039603B68002B01D1DA
S2144018A000231DE07B681B78FB603B68012B09DD4D
S2144018B0FB681B02FB607B6801331B781A46FB689B
S2144018C01343FB603B68022B09DDFB681B02FB6091
S2144018D07B6802331B781A46FB681343FB60FB6841
S2144018E018461437BD4680BC704700BF80B588B0E8
S2144018F000AF786039603B68DB68FB613B689B689B
S214401900BB610023FB7543F698233B61FB69002BC4
S21440191001D1012369E07B6800225A603B681B7C4A
S2144019201B0403F4FE023B685B681B0203F440732F
S214401930134343F480527B685A607B680022DA6027
S2144019403A683B685B68194610462A4B98470246F9
S2144019507B68DA60FB69012B05D17B6803221A603D
S2144019600123FB7534E07B6801221A600023FB7577
S2144019702EE07B681B6AFB60FB6803F48073002BD9
S21440198001D0052331E03B695A1E3A61002B01D154
S21440199009232AE0FB69012B07D1FB7D002B04D1EC
S2144019A07B6802221A600123FB75FB6803F0020382
S2144019B0002B00D10CE0BB695A1CBA617A68126BE6
S2144019C0D2B21A70FB69013BFB6143F698233B6138
S2144019D0FB69002BCDD100BF7B681B6A03F0010377
S2144019E0002BF9D07B681B6A002318462037BD467B
S2144019F080BD00BF9118400080B586B000AF7860CB
S214401A0039603B68DB687B613B689B683B617B6910
S214401A10002B01D1012356E07B6800225A603B68C8
S214401A201B7C1B0403F4FE023B685B681B0203F44A
S214401A3040731A437B685A607B680022DA603A68D3
S214401A403B685B6819461046214B984702467B68C0
S214401A50DA6019E07B681B6AFB60FB6803F48073FE
S214401A60002B01D005232EE0FB6803F00403002B77
S214401A7000D109E03B695A1C3A611B781A467B68DC
S214401A805A637B69013B7B617B69002BE2D17B68B3
S214401A901B6AFB60FB6803F48073002B01D00523B0
S214401AA011E0FB6803F00403002B00D1EFE700BF12
S214401AB07B6802221A6000BF7B681B6A03F0010342
S214401AC0002BF9D0002318461837BD4680BD00BF0E
S214401AD09118400080B483B000AF78607B68802265
S214401AE01A607B681B6B00BF0C37BD4680BC7047D6
S214401AF080B489B000AFF860B9607A60BB681A01FC
S214401B007B689A4202D81023FB6101E00823FB6100
S214401B107B68DA00FB69B96801FB03F35B081A448B
S214401B20FB69B96801FB03F3B2FBF3F3BB61BB6926
S214401B30DB087B61BB6903F007033B617B69002BD5
S214401B4003D07B69B3F5803F01D301230FE0FB69E7
S214401B50082B05D1FB685B6843F40022FB685A609B
S214401B603B691A047B691A43FB681A6200231846CD
S214401B702437BD4680BC704780B582B000AF7860E1
S214401B8078680F4B98477B6800225A607B68002233
S214401B905A627B6800229A6278680A4B984778684F
S214401BA0094B98477868094B98477868084B984798
S214401BB07868084B984700BF0837BD4680BD00BFD1
S214401BC0351E4000B51C4000E51C40004D1D400041
S214401BD0851D4000691D400080B584B000AFF860A8
S214401BE0B9607A60F8681A4B98471A4B00221A6018
S214401BF0BB68002B09D0BB681B687A681946F86832
S214401C00154B98470346002B01D001231BE0BB68C9
S214401C105A68BB689B681A43BB681B691A43BB6813
S214401C20DB681A430B4B1B6813430A4A1360094B85
S214401C301B68084A1360FB685A68064B1B681A43C1
S214401C40FB685A60002318461037BD4680BD00BF6B
S214401C50791B400030090020F11A400080B584B05E
S214401C6000AFF860B9607A607A68B968F8680A4B7D
S214401C7098470346002B01D0012308E0FB685B68C9
S214401C8023F00F0343F00202FB685A600023184615
S214401C901037BD4680BD00BFD91B400080B483B01E
S214401CA000AF78607B6840221A6000BF0C37BD46A4
S214401CB080BC704780B483B000AF78607B68882271
S214401CC01A6000BF0C37BD4680BC704780B483B0F6
S214401CD000AF78607B6810221A6000BF0C37BD46A4
S214401CE080BC704780B483B000AF78607B682422A5
S214401CF01A6000BF0C37BD4680BC704780B483B0C6
S214401D0000AF786039607B683A689A6000BF0C37ED
S214401D10BD4680BC704700BF80B483B000AF7860DB
S214401D2039607B683A68DA6000BF0C37BD4680BCD5
S214401D30704700BF80B483B000AF78607B685B6953
S214401D4018460C37BD4680BC704700BF80B483B091
S214401D5000AF78607B684FF480721A6000BF0C3723
S214401D60BD4680BC704700BF80B483B000AF78608B
S214401D707B684FF400321A6000BF0C37BD4680BC0B
S214401D80704700BF80B483B000AF78607B684FF484
S214401D9000221A6000BF0C37BD4680BC704700BFAB
S214401DA080B483B000AF7860396000BF7B685B6901
S214401DB003F00203002BF9D03B68C3F308027B68AC
S214401DC0DA61002318460C37BD4680BC704700BF1A
S214401DD080B582B000AF7860396007E03B685A1C37
S214401DE03A601B7819467868044B98473B681B78DE
S214401DF0002BF3D100BF0837BD4680BDA11D400073
S214401E0080B483B000AF786039607B685B6903F06C
S214401E100103002B01D1012306E07B689B69C3F3D5
S214401E2008023B681A60002318460C37BD4680BC43
S214401E30704700BF80B483B000AF78607B68044AC8
S214401E40C3F8E42000BF0C37BD4680BC704700BFD7
S214401E500041535580B483B000AF78607B684FF440
S214401E6000425A6000BF0C37BD4680BC704700BF7A
S214401E7080B483B000AF0346FB71084997F907303A
S214401E805B09FA7902F01F02012000FA02F241F8DB
S214401E90232000BF0C37BD4680BC704700E100E001
S214401EA080B483B000AF0346FB71094997F9073009
S214401EB05B09FA7902F01F02012000FA02F2203391
S214401EC041F8232000BF0C37BD4680BC704700BF9A
S214401ED000E100E080B483B000AF0346FB710949DF
S214401EE097F907305B09FA7902F01F02012000FAE1
S214401EF002F2603341F8232000BF0C37BD4680BC59
S214401F00704700BF00E100E080B483B000AF0346F6
S214401F103960FB7197F90730002B0BDA0D49FB79D6
S214401F2003F00F03043B3A68D2B21201D2B20B441C
S214401F301A7609E0084997F907303A68D2B2120192
S214401F40D2B20B4483F8002300BF0C37BD4680BC9A
S214401F50704700BF00ED00E000E100E080B483B0D1
S214401F6000AF78607B68072B25D801A252F823F093
S214401F70911F4000971F40009D1F4000A31F400038
S214401F80A71F4000AB1F4000AF1F4000B31F4000DC
S214401F904FF4FA4310E04FF400430DE04FF4004393
S214401FA00AE0084B08E0084B06E0084B04E0074B05
S214401FB002E0064B00E0002318460C37BD4680BCC6
S214401FC0704700BF00093D0000127A00001BB700B2
S214401FD080B500AF0620044B9847024613469B0048
S214401FE013449B00184680BD5D1F400080B500AF7F
S214401FF0024B984703465B08184680BDD11F4000F9
S21440200080B483B000AF78603960044B01221A6018
S21440201000BF0C37BD4680BC704700BF3409002067
S21440202090B583B002AF084B009301234FF40042B3
S2144020300B210648064CA0470B20064B984700BF8E
S2144020400437BD4690BD00BF01204000000E0E4044
S21440205029134000711E400080B582B000AF786002
S214402060396038681A4B98477B68D3F8503123F06C
S21440207001027B68C3F850217B68D3F8583143F09F
S21440208008027B68C3F858217B68D3F8503123F0A8
S21440209030027B68C3F850217B68D3F8503143F058
S2144020A020027B68C3F850217B68D3F8503123F474
S2144020B000727B68C3F850217B68D3F8503123F414
S2144020C080627B68C3F8502100BF0837BD4680BD9C
S2144020D09516400080B485B000AFF860B9607A606D
S2144020E0FB68D3F86C31002B12D1FB68D3F87C31F7
S2144020F0002B0DD1BA68FB68C3F86821FB687A6884
S214402100C3F86C21FB680122C3F8882101230FE045
S214402110FB68D3F87C31002B09D1BA68FB68C3F85A
S2144021207821FB687A68C3F87C21012300E000230D
S21440213018461437BD4680BC704700BF2DE9F04FA7
S21440214087B000AF524B9847524B9847524B22228B
S2144021505A64514B4FF400721A6000BF4E4B9B6856
S21440216003F40073002BF9D04C4B984703461946AE
S2144021704FF000020B461446DB1844EB04045B1891
S21440218044EB02044FEAC40B4BEA537B4FEAC30AC4
S21440219053465C465B1844EB02044FEA041949EA8E
S2144021A013794FEA0318B8EB030869EB04094FEAC2
S2144021B0C9037B617B6943EA58737B614FEAC80376
S2144021C03B61D7E9048941464A4643F2AF634FF044
S2144021D0000411EB030842EB040940464946304CE4
S2144021E043F2B0624FF00003A04703460C46184641
S2144021F02C4B98472C4B98470B212C482C4B9847F8
S214402200264B9847034619464FF000020B461446A5
S214402210DB1844EB04045B1844EB0204E000F8606F
S214402220F86840EA5370F860DB00BB60D7E90234D8
S2144022305B1844EB0204260146EA13761D01ED1AAC
S21440224066EB0406F3007B607B6843EA55737B606D
S214402250EB003B60D7E900562946324643F2AF636F
S2144022604FF00004CD1842EB0406284631460C4C8D
S21440227043F2B0624FF00003A04703460C461846B0
S214402280084B984700BF1C37BD46BDE8F08F00BFDF
S21440229021204000B522400000040E40ED1F4000C3
S2144022A0F5344000010000201D234000000E0E4083
S2144022B05920400080B584B000AF13200E4B98479D
S2144022C00E4B984703467B600D4BBB603B1D194643
S2144022D00C480D4B984713200C4B984713200C4B3B
S2144022E09847002113200B4B984713200A4B9847DA
S2144022F000BF1037BD4680BD95164000ED1F40001C
S214402300801A06000080014039174000A11E400098
S214402310D51E4000091F4000711E400080B586B0A3
S21440232000AF0123FB753B4600221A605A609A6054
S214402330DA601A61FF233B7001237B6007F11703C5
S214402340BB600123FB6030233B743B4619460F4875
S2144023500F4B984700BF0D480E4B98470346012B3E
S214402360F9D0002109480C4B9847012107480A4BF1
S214402370984702210548084B984704210348064BD6
S214402380984700BF1837BD4680BD00BF008001405B
S214402390A12B4000992C4000252D400080B582B0EE
S2144023A000AF4FF400411548154B984700BF154BFA
S2144023B01B68002BFBD04FF400411048124B984747
S2144023C00E48124B984746F2A81211490B48114B3B
S2144023D098470346FB7100BF084BD3F8603103F0C3
S2144023E00803002BF8D005480B4B9847054B0022B6
S2144023F01A60FB7918460837BD4680BD000E0E4071
S214402400C10F400034090020DD0F4000FD114000A0
S21440241088300020D52040002912400080B485B086
S21440242000AF0023FB730023BB6014E0204ABB6868
S21440243013441B78DBB2FF2B0AD1BB6801331C4A1E
S214402440D35CDBB2D82B03D11A4ABB68136006E0D4
S214402450BB680133BB60BB68174A9342E6D9154B4D
S2144024601B687B601AE0124A7B6813441B78DBB219
S214402470FF2B10D17B6801330D4AD35CDBB2D92BDE
S21440248009D10C4B1B687A68D31A02330B4A136087
S2144024900123FB7306E07B6801337B607B68064A5A
S2144024A09342E0D9FB7B18461437BD4680BC704744
S2144024B088300020843000209F8601008030002035
S2144024C080B483B000AF78607B68072B25D801A224
S2144024D052F823F0F5244000FB244000012540003C
S2144024E0072540000B2540000F25400013254000DF
S2144024F0172540004FF4FA4310E04FF400430DE038
S2144025004FF400430AE0084B08E0084B06E0084B4F
S21440251004E0074B02E0064B00E0002318460C3769
S214402520BD4680BC704700BF00093D0000127A00DF
S214402530001BB70080B500AF0620044B9847024604
S21440254013469B0013449B00184680BDC1244000A0
S21440255080B500AF024B984703465B08184680BDDF
S2144025603525400080B582B000AF78607868034B70
S214402570984700BF0837BD4680BD00BF951640004F
S21440258080B500AF0B20034B98470C20014B984773
S21440259000BF80BD6525400080B48DB000AF786038
S2144025A00B46FB707B68FB62FB7887F82B30FB6A38
S2144025B07B627B6A3B623B6A5B09FB61FB6903F5B6
S2144025C0001303F207735B02BB6197F82B30012BB5
S2144025D009D1FB6A7B617B6903F01F0301229A40A5
S2144025E0BB691A610CE097F82B30002B08D1FB6AC8
S2144025F03B613B6903F01F0301229A40BB695A6165
S214402600FB6AFB60FB6803F01F0301229A40BB692C
S214402610C3F8A02000BF3437BD4680BC704700BF1B
S21440262080B48BB000AF78600B46FB707B687B62F3
S214402630FB7887F823307B6AFB61FB69BB61BB692B
S2144026405B097B617B6903F5001303F207735B024A
S2144026503B6197F82330002B09D07B6AFB60FB6810
S21440266003F01F0301229A403B691A6308E07B6A25
S214402670BB60BB6803F01F0301229A403B695A6364
S21440268000BF2C37BD4680BC704700BF80B489B0C1
S21440269000AF78607B68FB61FB69BB61BB697B61AF
S2144026A07B695B093B613B6903F5001303F20773E3
S2144026B05B02DA6BFB69FB60FB6803F01F030121DA
S2144026C001FA03F31340002B14BF01230023DBB2AF
S2144026D018462437BD4680BC704700BF2DE9F04FF2
S2144026E087B000AF7D4B98477D4B98477D4B9847CA
S2144026F07D487E4B98470122012107207C4B984716
S2144027007C4B98477C4B00221A607C4B98477C4B0E
S21440271098477C4B9847012107207B4B98470021E0
S21440272007207A4B984700211420784B9847784BDF
S214402730984703464FF0000443F2AF614FF0000263
S21440274013EB010844EB020940464946714C43F2FC
S214402750B0624FF00003A04703460C4618466E4B47
S214402760984701211420694B98476C4B98470023A3
S214402770FB750023BB7500212020644B9847644BB3
S2144027809847034619464FF000020B461446DB189E
S21440279044EB04045B1844EB02046001F860F868FC
S2144027A040EAD360F8605801B860D7E9028918EB70
S2144027B0030849EB040943464C465B1844EB0204C5
S2144027C043F2AF614FF0000213EB010844EB0209FD
S2144027D0404649464F4C43F2B0624FF00003A04794
S2144027E003460C4618464C4B984701212020474B41
S2144027F0984700BF2B204A4B9847034683F0010377
S214402800DBB2002BF6D100BF2B20454B9847034642
S21440281083F00103DBB2002BF6D13EE001214148B4
S214402820414B98473A4B9847034619464FF00002AB
S2144028300B4614464FEA840B4BEA937B4FEA830AD7
S21440284053465C46660146EAD3665D01ED1A66EB82
S21440285004066D1846EB0206B3007B607B6843EACD
S21440286095737B60AB003B60D7E9005629463246FD
S21440287043F2AF634FF0000411EB030842EB040948
S21440288040464946234C43F2B0624FF00003A0470F
S21440289003460C461846204B9847244B1B68002B93
S2144028A0BCD0224B00221A60214B98470346BB758A
S2144028B0BB7D002BFCD01F4B98470346FB7500237F
S2144028C0BB75FB7D002BFCD01B4B98470023FB754C
S2144028D001211A48144B984795E700BF8D0C4000DD
S2144028E0AD3040008125400050140E40551E40003B
S2144028F0E1154000F5054000A8080020A505400069
S2144029005D074000712F4000992540002126400079
S21440291051254000F5344000010000203D21400094
S2144029208D2640005C874000BD074000B008002070
S2144029309D2340001D2440001D084000688740003D
S21440294080B483B000AF78607B68072B25D801A29F
S21440295052F823F0752940007B2940008129400029
S214402960872940008B2940008F294000932940004A
S214402970972940004FF4FA4310E04FF400430DE02F
S2144029804FF400430AE0084B08E0084B06E0084BCB
S21440299004E0074B02E0064B00E0002318460C37E5
S2144029A0BD4680BC704700BF00093D0000127A005B
S2144029B0001BB70080B500AF0620044B9847024680
S2144029C013469B0013449B00184680BD4129400097
S2144029D080B500AF024B984703465B08184680BD5B
S2144029E0B529400080B58EB000AF78600023FB600C
S2144029F00023BB60302387F834300A2387F824301E
S214402A000123BB6207F10C03FB6201233B6307F122
S214402A102403194678680E4B9847302387F82030B1
S214402A200B233B7401237B6107F10803BB61012341
S214402A30FB6107F1100319467868054B9847FB6819
S214402A401A02BB68134318463837BD4680BD00BFE0
S214402A507D2B400080B58AB000AF786000233B6194
S214402A600023FB601C233B750123BB61302387F8A2
S214402A70243007F11003FB6101233B6207F1140386
S214402A8019467868104B98471D233B750123BB6158
S214402A90302387F8243007F10C03FB6101233B62A7
S214402AA007F1140319467868074B98473B697F2B14
S214402AB004D1FB68A22B01D1002300E00123184675
S214402AC02837BD4680BD00BF7D2B400080B58AB00C
S214402AD000AF786000233B610023FB600023BB60AF
S214402AE001233B750123BB61302387F82430012343
S214402AF03B6207F10C03FB6107F114031946786843
S214402B001C4B9847AD23BB6007F10803FB6107F1F8
S214402B10140319467868184B984707F11003FB6171
S214402B2007F1140319467868124B98473A69BB6810
S214402B309A4201D0012318E007F10C03FB6107F12C
S214402B401403194678680C4B984707F11003FB614D
S214402B5007F1140319467868064B98473A69FB68AC
S214402B609A4201D0012300E0002318462837BD468C
S214402B7080BD00BF7D2B4000A12B400080B584B0B7
S214402B8000AF7860396039687868044B9847F860D9
S214402B90FB6818461037BD4680BD00BFED184000A4
S214402BA080B584B000AF7860396039687868044B87
S214402BB09847F860FB6818461037BD4680BD00BF92
S214402BC0F91940002DE9F0488AB000AF78603960C6
S214402BD000237B623B683B6248E03B6A1B78FE2BE7
S214402BE026D1294B9847034619464FF000020B461C
S214402BF01446A60046EA93769D002B4634465B185C
S214402C0044EB020443F2AF614FF0000213EB010BBA
S214402C1044EB020C584661461C4C43F2B0624FF0FF
S214402C200003A04703460C461846194B98471AE03F
S214402C303B6A1B783B720123FB6030233B760123C3
S214402C407B613B6A01333B6107F1080319467868AC
S214402C50104B9847F8617B6A01337B62FB69082B0F
S214402C6001D1FB690BE03B6A02333B623B6A1B784F
S214402C70FF2BB2D13B6A5B78FF2BAED100231846C0
S214402C802837BD46BDE8F088D1294000F5344000DD
S214402C9001000020A12B400080B58AB000AF7860CC
S214402CA0012387F8233007F10C0300221A605A608C
S214402CB09A60DA601A61FF233B7301233B6107F198
S214402CC023037B610123BB6130233B7707F10C0371
S214402CD0194678680F4B984700237B6278680E4BFE
S214402CE0984778627B6A1B0ADBB2262B0DD1786840
S214402CF00A4B98470346002B07D17868084B9847FD
S214402D000346002B01D1002300E001231846283754
S214402D10BD4680BDA12B4000E5294000552A400015
S214402D20CD2A400080B584B000AF78600B46FB707B
S214402D300023FB60FB78112B5CD801A252F823F0ED
S214402D40892D40008F2D4000952D40009B2D400042
S214402D50A12D4000A72D4000AD2D4000B32D4000D2
S214402D60B92D4000BF2D4000C52D4000CB2D400062
S214402D70D12D4000D72D4000DD2D4000E32D4000F2
S214402D80E92D4000EF2D4000224BFB6033E0224B04
S214402D90FB6030E0214BFB602DE0214BFB602AE0DE
S214402DA0204BFB6027E0204BFB6024E01F4BFB6082
S214402DB021E01F4BFB601EE01E4BFB601BE01E4BE2
S214402DC0FB6018E01D4BFB6015E01D4BFB6012E0FE
S214402DD01C4BFB600FE01C4BFB600CE01B4BFB608E
S214402DE009E01B4BFB6006E01A4BFB6003E01A4B06
S214402DF0FB6000E000BFFB68002B05D0F9687868F0
S214402E00164B9847002300E0012318461037BD466E
S214402E1080BD00BF7C874000FC8840001089400091
S214402E202489400074894000C88940001C8A4000BC
S214402E306C8A4000C08A4000148B4000048C4000DE
S214402E40F48C4000E48D4000D48E4000C88F400093
S214402E50BC904000B0914000A4924000C52B40007A
S214402E6080B483B000AF0346FB71084997F907303A
S214402E705B09FA7902F01F02012000FA02F241F8DB
S214402E80232000BF0C37BD4680BC704700E100E001
S214402E9080B483B000AF78607B68072B25D801A24A
S214402EA052F823F0C52E4000CB2E4000D12E4000D5
S214402EB0D72E4000DB2E4000DF2E4000E32E4000A1
S214402EC0E72E40004FF4FA4310E04FF400430DE085
S214402ED04FF400430AE0084B08E0084B06E0084B76
S214402EE004E0074B02E0064B00E0002318460C3790
S214402EF0BD4680BC704700BF00093D0000127A0006
S214402F00001BB70080B500AF0620044B984702462A
S214402F1013469B0013449B00184680BD912E4000EC
S214402F2080B500AF024B984703465B08184680BD05
S214402F30052F400080B582B000AF002109480A4BFB
S214402F40984778607B6803F01003002B06D0074B49
S214402F501B78DBB20133DAB2044B1A7000BF083775
S214402F60BD4680BD00000140CD01400028B701208D
S214402F7090B587B002AF164B9847F8601720154BB0
S214402F809847391D07F10802FB6800930B46F9681D
S214402F900120114CA0477B6843F480431A46002129
S214402FA00E480F4B9847BB68FA68B2FBF3F31A46D5
S214402FB000210A480B4B984717200B4B9847102286
S214402FC000210648094B984700BF1437BD4690BDC0
S214402FD0212F400095164000F101400000000140BE
S214402FE02901400081014000612E4000A5014000BB
S214402FF080B582B000AF78607868034B984700BFD2
S2144030000837BD4680BD00BF9516400080B500AF6E
S2144030100B20034B98470C20014B984700BF80BDC0
S214403020F12F400080B48DB000AF78600B46FB7047
S2144030307B68FB62FB7887F82B30FB6A7B627B6A97
S2144030403B623B6A5B09FB61FB6903F5001303F2D5
S21440305007735B02BB6197F82B30012B09D1FB6AE3
S2144030607B617B6903F01F0301229A40BB691A61AA
S2144030700CE097F82B30002B08D1FB6A3B613B698C
S21440308003F01F0301229A40BB695A61FB6AFB604A
S214403090FB6803F01F0301229A40BB69C3F8A020D7
S2144030A000BF3437BD4680BC704700BF80B500AF18
S2144030B0344B98474FF000610320334B98474FF00E
S2144030C000610420304B98474FF0805111202E4B22
S2144030D09847712110202C4B984771210F202A4B7E
S2144030E098472A491820284B984728491920264BA4
S2144030F0984726491A20244B984724491B20224BA0
S214403100984722491C20204B984720491D201E4B9B
S21440311098471E491E201C4B98471C491F201A4B97
S214403120984700212A201A4B984700211620184B12
S214403130984700212B20164B984701212020144BFE
S214403140984701211420124B9847124916200E4BDF
S214403150984711492A200C4B98470F492B200A4B79
S21440316098474FF000610520074B98474FF00061A5
S2144031700620054B98474FF000610820024B9847C1
S21440318000BF80BD0D3040002910400001000028DF
S21440319025304000790000287000002880B584B0B3
S2144031A000AF274BFB60274BBB60FA68BB689A4270
S2144031B00DD907E0BB681A1DBA60FA68111DF960A0
S2144031C012681A60BB68204A9342F3D320E0FA683C
S2144031D0BB689A421CD21C4A1A4BD31A7B60FA68C8
S2144031E07B681344043BFB60BA687B681344043B2B
S2144031F0BB600AE0BB681A1FBA60FA68111FF96024
S21440320012681A607B68043B7B607B68002BF1D1B8
S21440321000BF0E4BBB6004E0BB681A1DBA600022BC
S2144032201A60BB680A4A9342F6D30A4BFB600A4AC6
S214403230FB689360094B9847094B9847FEE700BFE9
S21440324048954000000000208408002084080020A4
S21440325034B701200000400000ED00E00D3840008B
S214403260DD26400080B400AFFEE700BF80B400AF6C
S2144032705D4B1B6B03F00303032B00F2968001A209
S21440328052F823F095324000B5324000FF324000FD
S214403290FF324000554B5B6903F08003002B04D09F
S2144032A0534B4FF400421A6080E0514B4FF4FA42C1
S2144032B01A607BE04C4B1B6A03F08073002B03D0F4
S2144032C04B4B4C4A1A6071E0494B4B4A1A60464B8E
S2144032D01B6A03F07003102B08D0202B0AD0002B5B
S2144032E000D00BE0424B444A1A6007E0404B434A4A
S2144032F01A6003E03E4B3F4A1A6000BF56E03A4B26
S2144033001B6A03F08073002B03D0394B394A1A608E
S21440331019E0374B384A1A60334B1B6A03F0700388
S214403320102B08D0202B0AD0002B00D00BE0304BBF
S214403330314A1A6007E02E4B304A1A6003E02C4BA5
S2144033402C4A1A6000BF284B1B6B03F00303022B6A
S21440335015D1254B9A6A2A4B13401B0C0133244A3D
S214403360126802FB03F3224A13601F4B9B6ADBB2D0
S2144033701F4A1268B2FBF3F31D4A136016E01A4B5D
S214403380DA6A1F4B13401B0C0133194A126802FBC2
S21440339003F3174A1360144BDB6ADBB2144A126815
S2144033A0B2FBF3F3124A136000E000BF0E4B1B6BF8
S2144033B003F07003702B08D10D4B1B68114AA2FB1B
S2144033C003235B080A4A13600AE0074B1B6B03F0B3
S2144033D070031B09064A126822FA03F3044A136074
S2144033E000BFBD4680BC704700040E4010140E401F
S2144033F00C000020001BB70000093D0000127A00B8
S2144034000000FF07ABAAAAAA80B483B000AF7860DA
S2144034107B68184A934204D8174B4FF080621A6074
S21440342023E07B68154A934203D8134B144A1A602C
S2144034301BE07B68134A934203D80F4B124A1A602C
S21440344013E07B68114A934203D80B4B104A1A602C
S2144034500BE07B680F4A934204D8074B4FF0042298
S2144034601A6002E0044B0C4A1A6000BF0C37BD4697
S21440347080BC7047FF2C3101000A0E40FF596202A3
S21440348000010004FF86930300020004FFB3C40457
S21440349000030004FFE0F5050005000480B485B095
S2144034A000AF7860104BFB60104B1B68002B02D1BE
S2144034B00E4B0F4A1A600D4B1B68BB60BA687B68A0
S2144034C01A44FB689A4202DD4FF0FF3306E0074B92
S2144034D01A687B681344054A1360BB68184614375D
S2144034E0BD4680BC704700BFFCFF01203809002065
S2144034F038E7012053B94AB9002908BF00281CBF45
S2144035004FF0FF314FF0FF3000F07EB9ADF1080CC0
S2144035106DE904CE00F006F8DDF804E0DDE90223AC
S21440352004B070472DE9F0478C460E460446089D89
S214403530002B50D18A4217466CD9B2FA82FEBEF1B1
S214403540000F0BD0CEF1200420FA04F401FA0EF658
S21440355044EA060C02FA0EF700FA0EF44FEA174950
S214403560220CBCFBF9F01FFA87F809FB10C642EAAA
S214403570064600FB08F3B34209D9F61900F1FF32BC
S21440358080F02281B34240F21F8102383E44F61A50
S214403590A2B2B6FBF9F309FB136642EA064403FB04
S2144035A008F8A04509D9E41903F1FF3280F00A81F2
S2144035B0A04540F20781023B3C44C8EB040443EA82
S2144035C000400021002D62D024FA0EF400232C6027
S2144035D06B60BDE8F0878B4207D9002D55D000219F
S2144035E085E841000846BDE8F087B3FA83F1002934
S2144035F040F09080B34202D3824200F2F880841AB0
S21440360066EB03060120B446002D40D085E8101036
S214403610BDE8F08712B90127B7FBF2F7B7FA87FE85
S214403620BEF1000F35D1F31B4FEA17481FFA87FC4F
S2144036300121B3FBF8F0220C08FB103642EA06469E
S2144036400CFB00F3B34207D9F61900F1FF3202D261
S214403650B34200F2CE801046F61AA2B2B6FBF8F39A
S21440366008FB136642EA06440CFB03FCA44507D954
S214403670E41903F1FF3202D2A44500F2B5801346A6
S214403680CCEB040443EA00409CE729462846BDE8C4
S214403690F087CEF1200106FA0EF307FA0EF720FA6D
S2144036A001F94FEA1748CE4049EA0309B6FBF8FA53
S2144036B04FEA194408FB1A661FFA87FC44EA064399
S2144036C00AFB0CF29A4200FA0EF40AD9DB190AF108
S2144036D0FF3180F087809A4240F28480AAF1020A45
S2144036E03B449B1A1FFA89F9B3FBF8F108FB1133E8
S2144036F049EA034301FB0CF69E4207D9DB1901F168
S214403700FF326BD29E4269D902393B449B1B41EA49
S2144037100A418EE7C1F1200E22FA0EF48B40234375
S21440372020FA0EF706FA01F44FEA134C26FA0EF684
S2144037303C43B6FBFCF9270C0CFB19661FFA83F8D2
S21440374047EA064609FB08F7B74202FA01F200FAD2
S21440375001FA08D9F61809F1FF3041D2B7423FD9ED
S214403760A9F102091E44F61BA0B2B6FBFCF40CFB02
S214403770146640EA064704FB08F8B84507D9FF1820
S21440378004F1FF3028D2B84526D9023C1F4444EA0B
S2144037900940C8EB0707A0FB02894F4544464E4602
S2144037A014D329D065B3BAEB040367EB060707FAD0
S2144037B00EFECB40CF404EEA030385E8880000214A
S2144037C0BDE8F0871346F8E61046E0E6B8EB02049C
S2144037D069EB03060138E5E70446D8E7114695E766
S2144037E08146C0E78A467CE7023B3C4448E70846B9
S2144037F00AE702383E442FE7C245E7D33E46D1E7C4
S2144038002946BDE8F08700BF704700BF70B50F4E31
S2144038100F4D761BB61018BF002405D0013455F85E
S214403820043B9847A642F9D10A4E0B4D761B05F04D
S21440383075FEB61018BF002406D0013455F8043B78
S2144038409847A642F9D170BD70BD00BF289540008C
S21440385028954000309540002895400070B4840775
S21440386046D0541E002A41D0CDB2034602E0621E26
S214403870E4B3144603F8015B9A07F8D1032C2ED91B
S214403880CDB245EA05250F2C45EA054519D903F181
S21440389010022646103E0F2E42F8105C42F80C5C92
S2144038A042F8085C42F8045C02F11002F2D8A4F137
S2144038B0100222F00F0204F00F041032032C1344BF
S2144038C00DD91E462246043A032A46F8045BFAD827
S2144038D0221F22F003020432134404F003042CB1E6
S2144038E0C9B21C4403F8011BA342FBD170BC70470D
S2144038F014460346C2E700BF0EB4F0B59CB021ABF9
S2144039000F4953F8042B019305466FF000440868AE
S21440391002954FF402774FF6FF7602A90695ADF86A
S214403920147004940794ADF8166000F077FA029B82
S21440393000221A701CB0BDE8F04003B0704700BFCC
S214403940380400202DE9F0414FF0010E7446002562
S2144039504FF0FF362B198B4200EB06070DD23F5D2A
S21440396010F803C0BC452DD21D460124C6EB030EFD
S2144039702B198B4200EB0607F1D34FF00108C2F833
S21440398000E0444600254FF0FF372B19994200EBE4
S214403990070E0ED91EF804E010F803C0F44518D9F7
S2144039A01D460124C7EB03082B19994200EB070E6E
S2144039B0F0D80137701C874224BFC2F800803846D2
S2144039C0BDE8F0810CD04FF0010E2E46744675448B
S2144039D0C0E70CD04FF001082F4644464544D4E794
S2144039E0744509BFA64601341D460124B2E7444546
S2144039F009BFA04601341D460124C6E72DE9F04F15
S214403A00ADF2144D164605468B461046194603AA97
S214403A101C46FFF797FF03AB81460DF20C4243F876
S214403A20044F9342FBD14CB1631E324604A812F8B1
S214403A30011B40F8213013F1FF33F8D203994A4670
S214403A403144304603F02CF8002871D109F1FF3399
S214403A500093F318824601932346804654465846C0
S214403A609A4608EB0A073A1A0021284402F0C8FF93
S214403A70002858D1002F56D0EB1904AA13F8013C61
S214403A8052F823304BB124B1039A934201D2C2EB91
S214403A900A03984400243846E3E74C4523460AF197
S214403AA0FF3E38BF4B46734513D208EB030216F869
S214403AB003C0A85C84452A4406EB030106D02EE0EA
S214403AC011F801CF12F8010F844528D10133734510
S214403AD0F6D34C45009980F08B80009B019808EB0C
S214403AE003020378A85C83422A4440F08180019B0D
S214403AF006EB040B06E013F801ED12F8010D8645BF
S214403B0004D161469B4501F1FF3CF4D101348C421F
S214403B1070D8039C3846A044C4EB0A04A1E7C9F118
S214403B2001029044B5E700200DF2144DBDE8F08F39
S214403B30C9EB04034B4538BF4B46013309F1FF3808
S214403B40039306EB080358464FF0000ACB469946C7
S214403B500AEB04073A1A0021284402F051FF0028D5
S214403B60E1D1002FDFD0EB1904AA13F8013C52F83C
S214403B702330A3BB611E8B4515D20AEB0B0216F809
S214403B800B3015F802E09E452A4406EB0B005B46D8
S214403B9006D027E010F801CF12F801EFF44521D106
S214403BA001338B42F6D3B8F1FF3F11D00AEB08023F
S214403BB099F80010AB5C99422A440FD14B4605E079
S214403BC013F8010D12F8011D884207D1B342F7D110
S214403BD005EB0A000DF2144DBDE8F08F039B9A44A6
S214403BE03846B5E7CBF1010292449A443846AFE7EF
S214403BF049468BE705EB080096E700BF0378002BA5
S214403C0000F004812DE9F04F91F8008085B04446DD
S214403C10B8F1000F16D0864601F1010C012703E0EB
S214403C2012F8014B6CB194469C4214BF002707F033
S214403C3001071EF8013F6246002BF1D19CF8003088
S214403C400BBB17B105B0BDE8F08F0E4605464146A2
S214403C500130C6EB0C0403F013FB074698B1012C69
S214403C60F0D02819874294BFC7EB000B4FF0010BEA
S214403C701F2C0CD92346324659463846FFF7BEFE1F
S214403C8005B0BDE8F08F002005B0BDE8F08F03AA70
S214403C9021463046FFF756FE039980460246314499
S214403CA0304602F0FDFE002858D108F1FF3301935C
S214403CB0F3188146054600935846B2466619321AAE
S214403CC00021384402F09CFE0028DCD1002EDAD0D9
S214403CD0C845434638BF4B469C4212D95A191AF833
S214403CE00310B85C88423A440AEB030E06D02DE037
S214403CF01EF8010F12F8011F884227D101339C425B
S214403D00F6D8019BC845194640F28380EA180098C9
S214403D100378B85C83423A447BD1009B0AEB090B9C
S214403D2006E013F801CD12F801EDF44504D1014642
S214403D305B4501F1FF30F4D109F10109894557D8B7
S214403D40039B30461D44C3EB0409B7E7C8F10102A4
S214403D5015441D444FF000093046AFE7C8EB040356
S214403D60434538BF4346013308F1FF39039306EB1A
S214403D70090358460025BB469A4667193A1A002159
S214403D80584402F03DFE00287FF47DAF002F3FF4FC
S214403D907AAF444515D908EB050216F808301BF8EB
S214403DA0020098425A4406EB0801434606D023E0F8
S214403DB011F801EF12F8010F86451DD101339C42E0
S214403DC0F6D8B9F1FF3F12D005EB09029AF8001079
S214403DD01BF8023099425A4414D1534605E013F872
S214403DE0010D12F8011D88420CD1B342F7D15F464F
S214403DF0781905B0BDE8F08FC8F1010215441D449E
S214403E003846BAE7039B38461D44B6E70B7813B9E5
S214403E107047414690E70020704700BF2DE9F04FBD
S214403E20C1B00C46099115460E930A9002F028FB45
S214403E3003681793184603F0A3FAA38916901E0644
S214403E4003D52369002B01F0198100231A461293EB
S214403E502593249319930B93DFF864A4149230AB04
S214403E60239399461592A84698F800304446EBB1FD
S214403E70252B02D11AE0252B03D014F8013F002B46
S214403E80F9D1C8EB04058DB1249B259AC9F800806A
S214403E9001332A44072BC9F804502592249300F393
S214403EA0A68009F108090B9B2B440B932378002B23
S214403EB000F0A68000231A468DF86F3019460C9302
S214403EC007934FF0FF3B637804F101085D4608F125
S214403ED00108A3F12000582800F22584DFE810F0FE
S214403EE08803230423049003230423042304230485
S214403EF0230423049703A50323045D00E200230460
S214403F00FE00050105010501050105010501050144
S214403F100501050123042304230423042304230466
S214403F20230423042304230415018102230481026D
S214403F302304230423042304C60223042304CD02BB
S214403F4023042304230423042304F7022304230422
S214403F5025032304230423042304230423042304E3
S214403F602304230423046603790381028102810229
S214403F708103790323042304D1032304DB03A30032
S214403F806400EE032304F5032304AA032304230456
S214403F90BC030C980E9340420C90079B43F00403DE
S214403FA0079398F8003092E70E98AB4600210468D5
S214403FB08DF86F10071D0798302378228B458DF8B3
S214403FC070304FF000058DF8712040F00203C0F2CB
S214403FD0C78320F0800343F00203079354EA0503A7
S214403FE00E9700F093830F461192B348CEE223AA71
S214403FF009990A9803F032FA48B90DF1C00952E718
S214404000259B23B10A98099923AA03F027FA099B0E
S2144040109B8913F0400F0B9B18BF4FF0FF33184699
S21440402041B0BDE8F08F1193AB46002A41F02382A1
S214404030079A12F0200300F02E820E9F073727F0D3
S2144040400703002703F10801BB450E91D3E900455D
S2144040508DF86F70C0F2528722F08003079354EABF
S214404060050300F0758330AEE20842EA4572E9087F
S21440407004F007030D461446303354EA050206F8AA
S214404080013DF1D1079AD10740F18480302B00F0F2
S21440409081803022731E06F8012C30AAD21A0D9267
S2144040A01E467AE098F800302A2B08F1010401F009
S2144040B0B181A3F13000092898BF002501F2648140
S2144040C014F8013B05EB850500EB4505A3F13000F0
S2144040D00928F5D945EAE575A046FAE6079B43F078
S2144040E08003079398F80030F1E6A3F130000023F0
S2144040F01C4618F8013B04EB840400EB4404A3F18F
S21440410030000928F5D90C94E3E61193AB46002A13
S21440411041F0C981079B43F010030793079B98061D
S21440412040F130850E9F073727F00707D7E9002371
S21440413007F108010E9114461D46002A73F100034C
S214404140C0F25B85BBF1000F9DF86F70C0F23885FA
S214404150079B23F08003079354EA050300F0DB81B6
S214404160002D08BF0A2CC0F0DB8130AE2046294621
S2144041700A220023FFF7BEF9303206F8012D20460A
S214404180294600230A22FFF7B5F904460D4654EAAD
S2144041900503EBD130AB9B1B0D930D9B5B45B8BF26
S2144041A05B4608930023139317B1089B013308938B
S2144041B0079B13F002030F9302D0089B0233089329
S2144041C0079B13F08403109340F0D7820C9B089A09
S2144041D09D1A002D40F3D182102D2599249A374FF1
S2144041E027DD189648461024B946099E2F460A9D54
S2144041F004E0103F102F00F1080016DD01322F4B6F
S21440420024921031072A259180E81800F1DD23AA70
S2144042103146284603F022F900287FF4F8AE103FD6
S214404220102F2599249A30A8E8DC189E3D464F4624
S214404230814601326C18072A25942492C9F80070EA
S214404240C9F8045000F328849DF86F7009F10809F6
S21440425077B1249B013301340DF16F010122072B06
S2144042602594249389E8060000F3A08309F1080901
S2144042700F9B6BB1249B013302341CA90222072BEF
S2144042802594249389E8060000F39C8309F10809E5
S214404290109B802B00F0D5820D9BC3EB0B07002FA5
S2144042A039DD074A249B0F92102F28DD22464FF017
S2144042B0100B0A9D099C0AE0D0934000F093400002
S2144042C09C934000103F102F09F1080916DD01337A
S2144042D01032072B2592249389E8000CF2DD23AA9E
S2144042E02146284603F0BAF800287FF490AE103FE7
S2144042F0102F259A249B0DF1C009E8DC14460133A3
S2144043000F9A24933C44072B259489E8840000F3B5
S214404310418309F10809079BDA0500F13082249BA6
S2144043200D99C9F8006001330C44072B2594C9F851
S2144043300410249300F3188309F10809079B5907D2
S2144043403FD50C9B089A9D1A002D3ADD102D249BD4
S214404350BC4F23DD22461026DDF828B0099C04E039
S214404360103D102D09F1080917DD0133B549249396
S2144043701032072B259289E84200F1DD23AA214618
S214404380584603F06BF800287FF441AE103D102DE0
S214404390259A249B0DF1C009E7DC144601332C44D2
S2144043A0072B25942493C9F80070C9F8045008DDFB
S2144043B023AA09990A9803F051F800287FF427AEFB
S2144043C0259C0B9B0C9A08998A42ACBF9B185B189D
S2144043D00B93002C40F0D482002324930DF1C009A7
S2144043E042E51193AB46002A41F059800E9F0737AD
S2144043F027F0070303F108020E921A6814925B68CE
S2144044001593159B149D23F00044284621464FF0F3
S214404410FF328D4B04F000F9002840F0C184284656
S21440442021464FF0FF32884B04F0D8F8002840F081
S214404430B784149815990022002304F0C5F8002884
S21440444040F04B879DF86F70804E814B079921F066
S21440445080010791119903224FF0000B08924729DB
S214404460D8BF1E460D92CDF84CB09DE6079B43F054
S2144044700803079398F8003029E51193AB46002AC5
S21440448041F00980079B43F010030793079A12F008
S21440449020037FF4D2AD079911F0100200F0078593
S2144044A00E988DF86F30BBF1000F046800F10407DA
S2144044B04FF00005C0F221850A4622F0800207929E
S2144044C054EA05020E9700F043811F46CBE5119350
S2144044D0AB46002A40F0D787079B43F0100307936C
S2144044E0079A12F0200300F032830E9F073727F01A
S2144044F00703002703F10801BB450E91D3E90045A9
S2144045008DF86F70C0F25C8322F08003079354EA04
S21440451005037FF425AEBBF1000F00F0FE800024BB
S21440452040AE303406F8414D34E61193AB46002A8F
S21440453040F0A587079B47489D0640F197800E9F11
S214404540073727F00703D3E9004503F108020E9228
S214404550079A12F0010700F0418254EA050300F082
S214404560F5849DF844208DF871200027079A8DF831
S2144045706F703023BB458DF8703042F00203C0F2B6
S214404580A98622F0800343F00203079330AE230946
S21440459004F00F0143EA05732A091C461546435C9E
S2144045A006F8013D54EA0503F1D1F3E50E9911935F
S2144045B00A688DF8982000230A461F468DF86F300B
S2144045C0043201230893BB4613970E920D9326AEF2
S2144045D0EEE51193AB46002A3FF4A0AD8DF86F1080
S2144045E09CE5079B43F04003079398F800306EE441
S2144045F098F8003000297FF46AAC0122202166E456
S214404600079B43F00103079398F800305FE40E9C45
S21440461023680C9318460028234603F10403FFF64C
S214404620B8AC0E9398F8003051E498F80030012268
S2144046302B214CE41193AB46002A3FF451AF8DF842
S2144046406F104DE7F0934000FFFFEF7FB0934000C0
S214404650AC934000BC9340001193AB46002A40F018
S2144046600387079B99489D063FF569AF079BDC0685
S21440467040F15E840E9A1346043314680E93002568
S21440468066E798F800306C2B00F0E184079840F01D
S214404690100007901BE4002A40F0DB86079B9B0631
S2144046A040F12F840E9A0B991368CD1708460432B2
S2144046B029460E92C3E90001FFF7D6BB079B43F09D
S2144046C02003079398F8003001E40E9A1193166879
S2144046D000248DF86F40171D002E00F0BD85002D7C
S2144046E0C0F20F852A462146304602F089F9002856
S2144046F000F00486831B0D93A34623EAE3730E97CC
S2144047000893CDF84CB09DF86F704DE56F48119208
S214404710BBF1000F40F073815F464FF0000BCDF8C1
S21440472034B030AE39E51193002A40F0B086119A85
S214404730002A3FF465AC002301211F4608918DF8FE
S21440474098208DF86F309B4613930D9126AE2FE53B
S214404750BBF1000F00F0DD8500270024002582E431
S2144047605A480793119254EA05030E974FF00007F4
S2144047707FF40CAF0024002508E7259C68E5119BD4
S214404780652B40F3A980149815990022002303F066
S21440479011FF002800F03581249B4D4AC9F80020BF
S2144047A0013301340122072B25942493C9F80420B1
S2144047B000F3E68309F108091D9B129A934203DB36
S2144047C0079BDB077FF5BAAD249B1699179AC9F865
S2144047D0002001330C44072B2594C9F80410249379
S2144047E000F33F8409F10809129B5D1E002D7FF7F8
S2144047F0A5AD384A249B0F92102D40F3E681102633
S2144048000A9FDDF824B005E009F10809103D102D97
S21440481040F3DB8101331034072B25942493C9F8E9
S21440482000A0C9F80460EFDD23AA5946384602F0D6
S21440483015FE00287FF4EBAB259C249B0DF1C009A8
S214404840E4E70C9B089A9F1A002F7FF725AD214A74
S214404850249B0F92102F2BDD4A462146B946102541
S21440486037460A9C099E06E0A9F11009B9F1100FD7
S21440487002F1080218DD01331031072B25912493ED
S214404880C2F800A05560EFDD23AA3146204602F06C
S214404890E5FD00287FF4BBABA9F11009B9F1100F74
S2144048A02599249B30AAE6DC3E460C464F46914668
S2144048B001330F9A24933C44072B259489E88400BF
S2144048C000F3458209F10809E6E400BFD0934000B2
S2144048D0EC9340009C934000129B249D012B40F398
S2144048E00882013501340123072D25942495C9F803
S2144048F00060C9F8043000F30D8209F10809169AE1
S214404900179BC9F8003001351444072D259424958B
S214404910C9F8042000F30E8209F108090023149810
S2144049201599002203F046FE129B002840F0C380F3
S214404930013B013501361C44072D24952594C9F8C2
S2144049400060C9F8043000F3F58009F10809199AA7
S214404950C9F80420013514441FAB072D259424952F
S214404960C9F800307FF7E8AC23AA09990A9802F004
S21440497075FD00287FF44BAB259C0DF1C009DDE4A6
S21440498023AA09990A9802F069FD00283FF424AD4D
S214404990FFF73DBB23AA09990A9802F05FFD00285D
S2144049A07FF435AB259C0DF1C009B4E423AA0999E0
S2144049B00A9802F053FD00287FF429AB259C0DF1A0
S2144049C0C00955E423AA09990A9802F047FD002831
S2144049D07FF41DAB259C0DF1C00959E4BBF1000FD7
S2144049E08DF86F70C0F2D88222F08003079354EAA5
S2144049F005037FF4CBADBBF1000F3FF48DAE00272F
S214404A00B8E61D9D002D40F3CA82139B129A93422E
S214404A10A8BF1346002B1D460DDD249BC9F8006039
S214404A2001332C44072B2594C9F80450249300F3F3
S214404A309C8309F10809139B002DA8BF5B1B002B24
S214404A401D4640F3F680BA4A249B0F92102D40F341
S214404A508A8222461027DDF828B0099C05E009F135
S214404A600809103D102D40F37D8201331032072B8C
S214404A7025922493C9F800A0C9F80470EFDD23AA54
S214404A802146584602F0EAFC00287FF4C0AA259A40
S214404A90249B0DF1C009E4E723AA09990A9802F07D
S214404AA0DDFC00287FF4B3AA9DF86F70259C0DF1BD
S214404AB0C009FFF7CDBB5E1E002E7FF748AF9C4B6C
S214404AC00F93102E2CDDCDF834801027B046DDF83D
S214404AD028B0099E06E0A8F11008B8F1100F09F1B9
S214404AE008091ADD01351034072D25942495C9F898
S214404AF000A0C9F80470EEDD23AA3146584602F0FD
S214404B00ADFC00287FF483AAA8F11008B8F1100F76
S214404B10259C249D0DF1C009E4DC4646DDF8348032
S214404B200F9B01353444072D2594249589E8480089
S214404B307FF70BAF23AA09990A9802F08FFC00284A
S214404B407FF465AA259C249D0DF1C009FFE60799D0
S214404B5011F0100200F008810E988DF86F30BBF10E
S214404B60000F046800F104074FF0000526DB0A46F4
S214404B7022F08002079254EA05020E971F467FF401
S214404B80EFAAC8E4079BD9062AD4079B5A0627D51E
S214404B900E99B1F900400431E51722462B460E9196
S214404BA0FFF7CBBA0E998DF86F30BBF1000F0C684B
S214404BB001F104074FF0000580F247820E971F462A
S214404BC054EA05037FF4CCAAAAE401330F9A24934F
S214404BD02C44072B259489E824007FF7ADABC3E629
S214404BE00E9A146813460433E51722460E93002A9D
S214404BF02B4673F10003BFF6A5AA64424FF02D077B
S214404C0065EB4505BBF1000F8DF86F70FFF6A8AA5F
S214404C10079B23F080030793FFF7A2BA23AA0999BC
S214404C200A9802F01BFC00287FF4F1A9259C0DF1A0
S214404C30C009139A1D9B32441746129A934247DB8B
S214404C40079AD50744D412990E44F51BCB1A9D42B9
S214404C50A8BF1D46002D2E460DDD249AC9F80070CB
S214404C6001322C44072A2594C9F80450249200F3B4
S214404C700B8309F10809002EACBF9D1B1D46002D75
S214404C807FF75CAB2A4A249B0F92102D9DDD1026A1
S214404C900A9FDDF824B004E009F10809103D102D04
S214404CA093DD01331034072B25942493C9F800A0D4
S214404CB0C9F80460F0DD23AA5946384602F0CEFB18
S214404CC000287FF4A4A9259C249B0DF1C009E5E7A4
S214404CD0249A16981799C9F8001001320444072AF6
S214404CE02594C9F80400249200F3A98209F1080922
S214404CF0A9E7079BD8073FF5F4AD013501340123FA
S214404D00072D25942495C9F80060C9F804307FF72C
S214404D101CAE0FE723AA09990A9802F09FFB0028C9
S214404D207FF475A9259C249D0DF1C009E7E500BFD9
S214404D309C93400023AA09990A9802F08FFB00280A
S214404D407FF465A9259C249D0DF1C009E6E523AABC
S214404D5009990A9802F082FB00287FF458A9259CFE
S214404D600DF1C009FFF798BA079911F040033FF4D8
S214404D7019AF0E988DF86F20BBF1000F048800F134
S214404D8004074FF00005C0F2B98121F08003079375
S214404D9054EA05030E9717467FF4E2A9FFF7BBBB1C
S214404DA0149C22462046159C2346214603F034FC9C
S214404DB0002840F01783119BBBF1FF3F23F02003F0
S214404DC00D9300F07082472B00F09281079B43F4CE
S214404DD080731093159B1F1E149B0893BBBF3B46C6
S214404DE003F1004700232D230F93119B662B00F001
S214404DF05D82462B00F051810D9B089A452B21A8D9
S214404E001EA90CBF0BF101055D46049003911DA839
S214404E1002213B460290019500910A9800F0F0FB73
S214404E20119B672B064640F09082079BDA0740F1BD
S214404E30AF827419089839460022002303F0BAFB63
S214404E40002840F09081219B9C4206D930215A1C74
S214404E5021921970219B9C42F9D89B1B12930D9B63
S214404E60472B00F07981119B652B40F37D82119B87
S214404E70662B1D9B139300F05B82139A12998A420D
S214404E80C0F23082079BD90700F1848222EAE2739F
S214404E900D92672211920F9A002A40F05381089390
S214404EA0109B079393469DF86F70FFF77DB907995F
S214404EB011F0400315D00E988DF86F20BBF1000F0F
S214404EC0048800F104074FF0000516DB21F080034C
S214404ED0079354EA05030E973FF43AAC1746FFF79C
S214404EE0C2B80E998DF86F30BBF1000F0C6801F117
S214404EF004074FF0000580F2A5800E970027FFF7C5
S214404F00B2B8079BDF060BD4079B5E0608D50E9A01
S214404F10136804320E92BDF82C201A80FEF7A4BF08
S214404F200E9A136804320E920B9A1A60FEF79CBFD4
S214404F300E9A079B13F0400F134603F104030CBF71
S214404F40146814880E930025FFF702BB0027BB4564
S214404F508DF86F70FFF60EAC079B23F08003079327
S214404F60FFF7D6BB144601330F9A24932C44072BE5
S214404F70259489E824003FF751AE09F1080958E620
S214404F8023AA09990A9802F069FA00287FF43FA8F4
S214404F90259C0DF1C0090FE40E9FFFF7E4BB249B50
S214404FA0B54AC9F80020013301340122072B259465
S214404FB02493C9F8042000F38E8009F108092DB91E
S214404FC0129B1BB9079BDF077FF5B8A9249B169950
S214404FD0179AC9F8002001330C44072B2594C9F8CA
S214404FE00410249300F3C28109F108096D42002D94
S214404FF040F39B80A14A0F92102D40F3C380224677
S2144050001027DDF828B0099C05E009F10809103D95
S214405010102D40F3B68001331032072B259224938F
S214405020C9F800A0C9F80470EFDD23AA2146584607
S21440503002F014FA00287EF4EAAF259A249B0DF17C
S214405040C009E4E7079AFFF738BA079A90E5079B46
S21440505043F02003079308F1010898F80030FEF764
S21440506036BF23AA09990A9802F0F8F900287EF478
S214405070CEAF259C0DF1C009FFF7B6BB40210A987C
S21440508001F002FA099A10601061002800F0E581EC
S214405090099A40235361FEF7D8BE21A81EA9049062
S2144050A003911DA803210290089ACDF804B03B4610
S2144050B000910A9800F0A4FA5D460646119B462BDE
S2144050C006EB05047FF4B6AE3378302B00F07C81D7
S2144050D01D9D2C44AEE623AA09990A9802F0BEF913
S2144050E000287EF494AF1D9D259C0DF1C00966E70F
S2144050F0BBF1000F08BF4FF0010B67E60E9717464F
S2144051005EE5304602F03CF9A34603460D90FFF7B5
S214405110F4BA23AA09990A9802F0A0F900287EF466
S21440512076AF259C249B0DF1C0091299C9F8006002
S21440513001330C44072B25942493C9F804107FF7B9
S214405140FBA811E42D270893109B07938DF86F70EA
S2144051504FF0000BFFF729B81D9BDD1C1EDB9B455F
S2144051601CDB139389E6234677E623AA09990A9817
S21440517002F074F900287EF44AAF259C0DF1C00970
S21440518059E4144601330F9A24932C44072B259454
S21440519089E82400BDDC09F10809C6E7119A023AFD
S2144051A01192013B002B9DF844201D93B8BF5B42F3
S2144051B08DF87C20B4BF2D222B22092B8DF87D2024
S2144051C040F3F1800DF18B0004462D4A82FB03210B
S2144051D0DA17C2EBA10202EB8201A3EB410303F113
S2144051E03001092A134604F8011DEEDC214630330F
S2144051F0DAB201F8012D884240F23A810DF17E0183
S214405200234601E013F8012B01F8012B9842F9D10F
S214405210431C1B1B0DF17E0213441FAA9B1A129AB5
S2144052201993012A13440D9340F3EA800D9B169A76
S214405230134400220D93139223EAE3732BE623AA2A
S21440524009990A9802F00AF900287EF4E0AE1D9B00
S214405250259C0DF1C009F6E4062D2B4628BF0623F3
S2144052600D9323EAE373B3460E9713963746089397
S214405270044EFEF799BF00BFEC9340009C9340005D
S21440528067666666E493400023AA09990A9802F086
S214405290E5F800287EF4BBAE1D9B129A259CD31AD7
S2144052A00DF1C009E7E44FF0060B8FE521A81EA9D3
S2144052B0049003911DA803210290089ACDF804B0EB
S2144052C03B4600910A9800F09BF95D46064600EB87
S2144052D00B04F9E60793FFF759B92D278DF86F7041
S2144052E0FFF7B2B8169A129B1344139A0D93002AEE
S2144052F07EDD672223EAE3731192CCE525EAE57367
S2144053000E9708930D95834613909DF86F70FEF7A1
S2144053104BBF079BDB075F4605D540AE302306F8FC
S214405320413DFEF737BFCDF834B030AEFEF735BF5F
S214405330002B7DDDBBF1000F3DD1079AD4073AD450
S2144053401A460D9223EAE373A5E5119B472B7FF49B
S21440535070AD079BDB073FF5B1AE219B9B1B1293BD
S2144053600D9B472B3FF4F8AE1D9B1AE723AA0999DD
S2144053700A9802F073F800287EF449AE1D9D259CDD
S214405380249B0DF1C00931E6A0460025FEF7A1BDDD
S214405390219B62E5169A139B134467220D93119244
S2144053A023EAE37377E5303330228DF87F308DF88B
S2144053B07E2020AB31E7139B169A9D1805EB0B0316
S2144053C00D9323EAE37366E50898394600220023E6
S2144053D003F0F0F800287FF47BAEC5F101051D957B
S2144053E02C4427E5324E334B9DF86F70FFF72EB8AE
S2144053F0139B0D9AC3F101031A4413460D9278E7A6
S214405400079B13F001037FF411AF13930D9B23EA20
S214405410E37340E50E9898F8013005680430002D97
S2144054200E90A046BEF653AD4FF0FF35FEF74FBD8B
S214405430BBF1000F02D1079BD80707D5169B5D1C12
S21440544005EB0B030D9323EAE37324E501230D9349
S21440545021E58DF86F10FFF721B90A9A0C231360E7
S2144054604FF0FF30FEF7DCBD8DF86F10FFF7F9B850
S2144054700DF17E03D1E68DF86F10FEF7D9BD8DF89D
S2144054806F10FFF757B88DF86F10FFF725B88DF8F7
S2144054906F10FFF74CB98DF86F10FEF7F3BF8DF81D
S2144054A06F10FEF7A3BF8DF86F10FEF733BE00BF38
S2144054B0B8934000B4934000024B13B1024800F04A
S2144054C005B87047000000005964400000230146BC
S2144054D01A46184602F042B802690B69934200F336
S2144054E08D802DE9F04F03F1FF3801F1140700F1EC
S2144054F0140B57F828205BF828304FEA880483B00E
S2144055000132B3FBF2F90BEB0403009407EB040AF9
S2144055100193B9F1000F39D00025BC46DE462B4634
S2144055205CF8046BDEF80020B4B209FB0455360C78
S2144055302C0C09FB0644ADB25B1BA6B213FA82F3F1
S214405540C6EB124606EB23469BB243EA0643E245C9
S2144055504EF8043B4FEA14454FEA2643E0D2009B00
S2144055605BF8033093B9019C231F9B450CD254F83B
S214405570043C4BB9A4F1080302E01A68043B1AB98C
S2144055809B4508F1FF38F8D3C0F81080044601F078
S2144055905FFD00282EDB09F101095D46002357F820
S2144055A0041B28688AB29A1A090C12FA80F2C1EBD8
S2144055B0104303EB224391B241EA0341BA4545F812
S2144055C0041B4FEA2343EAD25BF828200BEB880300
S2144055D082B91A1F93450BD253F8042C42B9083BA4
S2144055E002E01A68043B1AB99B4508F1FF38F8D325
S2144055F0C4F81080484603B0BDE8F08F00207047DE
S2144056002DE9F04F016C97B08146239C92469B460D
S21440561049B1426C4A60012393408B6001F036FBEF
S2144056200023C9F84030BBF1000FD84633DB0023D7
S2144056302360A54B1A4608EA0303934214D050460B
S21440564059460022002302F0B5FF054648B3229A89
S21440565001231360249B002B00F0C5809B481860F4
S214405660013817B0BDE8F08F229A42F20F731360EC
S214405670BAF1000F00F0A2809548249B002BF0D092
S214405680C378002B00F0B18000F10803249A136021
S21440569017B0BDE8F08F01232BF000482360C346C7
S2144056A0C7E714AA15AB0192009352465B4648469C
S2144056B001F078FD5FEA1854089040F08880149D09
S2144056C0159C2C4404F23243202B40F39182C3F1C4
S2144056D0400304F2124008FA03F82AFA00F040EABF
S2144056E0080002F089FC0123013CA1F1F8711093F7
S2144056F00022784B02F042FB6DA3D3E9002302F070
S214405700F1FC6DA3D3E9002302F03AFB064620469F
S2144057100F4602F081FC6AA3D3E9002302F0E2FCC4
S21440572002460B463046394602F02AFB06460F46EE
S21440573002F088FF0022049000233046394602F0EB
S21440574043FF002840F03082049E162E00F2298245
S214405750614B03EBC603D3E9000152465B4602F0B9
S21440576051FF002800F04982731E049300230C93D7
S2144057702C1B631E029300F1328200230593049B88
S214405780002BC0F22382029A0B9311461944002341
S21440579002910A93209B092B29D8052B40F3588663
S2144057A0043B20930025209B023B032B00F23586CA
S2144057B0DFE813F02C03280237035904444B474ACA
S2144057C0C8F31300002814BF1846104655E7CBF31D
S2144057D0130343F07F5110955046A4F2FF3441F432
S2144057E04011149D84E73E483BE7C31C4EE700212A
S2144057F0C9F844104846209101F022FA4FF0FF3392
S2144058000693209A0D93012307902192C9F84000F1
S2144058100993159B002BC0F2D180049A0E2A00F300
S214405820CD802D4B03EBC203D3E90034CDE90234DF
S214405830219B002BC0F2008356465F465046594691
S214405840DDE902AB52465B4602F076FD02F0FAFE18
S214405850044602F0E1FB52465B4602F043FC0B4630
S21440586002463946304602F089FA079D04F1300375
S2144058702B70069B012B06460F4605F1010562D0AC
S2144058800022184B02F02EFC0022002306460F464C
S21440589002F090FE00287ED1CDF81490DDF818A0D6
S2144058A0DDF81CB0DDE9028929E000BFAFF30080D7
S2144058B061436F63A787D23FB3C8608B288AC63FD1
S2144058C0FB799F501344D33F0000F07FED93400098
